{"abi":[{"type":"function","name":"createChainSpecificProxyWithNonce","inputs":[{"name":"_singleton","type":"address","internalType":"address"},{"name":"initializer","type":"bytes","internalType":"bytes"},{"name":"saltNonce","type":"uint256","internalType":"uint256"}],"outputs":[{"name":"proxy","type":"address","internalType":"contract SafeProxy"}],"stateMutability":"nonpayable"},{"type":"function","name":"createProxyWithCallback","inputs":[{"name":"_singleton","type":"address","internalType":"address"},{"name":"initializer","type":"bytes","internalType":"bytes"},{"name":"saltNonce","type":"uint256","internalType":"uint256"},{"name":"callback","type":"address","internalType":"contract IProxyCreationCallback"}],"outputs":[{"name":"proxy","type":"address","internalType":"contract SafeProxy"}],"stateMutability":"nonpayable"},{"type":"function","name":"createProxyWithNonce","inputs":[{"name":"_singleton","type":"address","internalType":"address"},{"name":"initializer","type":"bytes","internalType":"bytes"},{"name":"saltNonce","type":"uint256","internalType":"uint256"}],"outputs":[{"name":"proxy","type":"address","internalType":"contract SafeProxy"}],"stateMutability":"nonpayable"},{"type":"function","name":"getChainId","inputs":[],"outputs":[{"name":"","type":"uint256","internalType":"uint256"}],"stateMutability":"view"},{"type":"function","name":"proxyCreationCode","inputs":[],"outputs":[{"name":"","type":"bytes","internalType":"bytes"}],"stateMutability":"pure"},{"type":"event","name":"ProxyCreation","inputs":[{"name":"proxy","type":"address","indexed":true,"internalType":"contract SafeProxy"},{"name":"singleton","type":"address","indexed":false,"internalType":"address"}],"anonymous":false}],"bytecode":{"object":"0x608060405234801561001057600080fd5b50610959806100206000396000f3fe608060405234801561001057600080fd5b50600436106100675760003560e01c806353e5d9351161005057806353e5d935146100b7578063d18af54d146100cc578063ec9e80bb146100df57600080fd5b80631688f0b91461006c5780633408e470146100a9575b600080fd5b61007f61007a3660046105d2565b6100f2565b60405173ffffffffffffffffffffffffffffffffffffffff90911681526020015b60405180910390f35b6040514681526020016100a0565b6100bf610194565b6040516100a09190610699565b61007f6100da3660046106b3565b6101dc565b61007f6100ed3660046105d2565b6102f8565b600080838051906020012083604051602001610118929190918252602082015260400190565b60405160208183030381529060405280519060200120905061013b85858361032a565b60405173ffffffffffffffffffffffffffffffffffffffff8781168252919350908316907f4f51faf6c4561ff95f067657e43439f0f856d97c04d9ec9070a6199ad418e2359060200160405180910390a2509392505050565b6060604051806020016101a6906104c6565b7fffffffffffffffffffffffffffffffffffffffffffffffffffffffffffffffe082820381018352601f90910116604052919050565b600080838360405160200161022092919091825260601b7fffffffffffffffffffffffffffffffffffffffff00000000000000000000000016602082015260340190565b6040516020818303038152906040528051906020012060001c90506102468686836100f2565b915073ffffffffffffffffffffffffffffffffffffffff8316156102ef576040517f1e52b51800000000000000000000000000000000000000000000000000000000815273ffffffffffffffffffffffffffffffffffffffff841690631e52b518906102bc9085908a908a908a9060040161071f565b600060405180830381600087803b1580156102d657600080fd5b505af11580156102ea573d6000803e3d6000fd5b505050505b50949350505050565b60008083805190602001208361030b4690565b6040805160208101949094528301919091526060820152608001610118565b6000833b610399576040517f08c379a000000000000000000000000000000000000000000000000000000000815260206004820152601f60248201527f53696e676c65746f6e20636f6e7472616374206e6f74206465706c6f7965640060448201526064015b60405180910390fd5b6000604051806020016103ab906104c6565b7fffffffffffffffffffffffffffffffffffffffffffffffffffffffffffffffe082820381018352601f909101166040819052610403919073ffffffffffffffffffffffffffffffffffffffff881690602001610769565b6040516020818303038152906040529050828151826020016000f5915073ffffffffffffffffffffffffffffffffffffffff821661049d576040517f08c379a000000000000000000000000000000000000000000000000000000000815260206004820152601360248201527f437265617465322063616c6c206661696c6564000000000000000000000000006044820152606401610390565b8351156104be5760008060008651602088016000875af1036104be57600080fd5b509392505050565b6101988061078c83390190565b73ffffffffffffffffffffffffffffffffffffffff811681146104f557600080fd5b50565b7f4e487b7100000000000000000000000000000000000000000000000000000000600052604160045260246000fd5b600082601f83011261053857600080fd5b813567ffffffffffffffff80821115610553576105536104f8565b604051601f83017fffffffffffffffffffffffffffffffffffffffffffffffffffffffffffffffe0908116603f01168101908282118183101715610599576105996104f8565b816040528381528660208588010111156105b257600080fd5b836020870160208301376000602085830101528094505050505092915050565b6000806000606084860312156105e757600080fd5b83356105f2816104d3565b9250602084013567ffffffffffffffff81111561060e57600080fd5b61061a86828701610527565b925050604084013590509250925092565b60005b8381101561064657818101518382015260200161062e565b50506000910152565b6000815180845261066781602086016020860161062b565b601f017fffffffffffffffffffffffffffffffffffffffffffffffffffffffffffffffe0169290920160200192915050565b6020815260006106ac602083018461064f565b9392505050565b600080600080608085870312156106c957600080fd5b84356106d4816104d3565b9350602085013567ffffffffffffffff8111156106f057600080fd5b6106fc87828801610527565b935050604085013591506060850135610714816104d3565b939692955090935050565b600073ffffffffffffffffffffffffffffffffffffffff808716835280861660208401525060806040830152610758608083018561064f565b905082606083015295945050505050565b6000835161077b81846020880161062b565b919091019182525060200191905056fe608060405234801561001057600080fd5b5060405161019838038061019883398101604081905261002f916100b9565b6001600160a01b0381166100945760405162461bcd60e51b815260206004820152602260248201527f496e76616c69642073696e676c65746f6e20616464726573732070726f766964604482015261195960f21b606482015260840160405180910390fd5b600080546001600160a01b0319166001600160a01b03929092169190911790556100e9565b6000602082840312156100cb57600080fd5b81516001600160a01b03811681146100e257600080fd5b9392505050565b60a1806100f76000396000f3fe6080604052600073ffffffffffffffffffffffffffffffffffffffff8154167fa619486e00000000000000000000000000000000000000000000000000000000823503604d57808252602082f35b3682833781823684845af490503d82833e806066573d82fd5b503d81f3fea264697066735822122073b49ecadaabc1957a33d7094d6635f9ac344d60331f79dad58358f16ca3195a64736f6c63430008110033a26469706673582212200e5761ac7c8197cc6a687b10988ee6b19b8f63f146f4b1e09fb33c6a9d429b6764736f6c63430008110033","linkReferences":{}},"methodIdentifiers":{"createChainSpecificProxyWithNonce(address,bytes,uint256)":"ec9e80bb","createProxyWithCallback(address,bytes,uint256,address)":"d18af54d","createProxyWithNonce(address,bytes,uint256)":"1688f0b9","getChainId()":"3408e470","proxyCreationCode()":"53e5d935"},"id":305}