{"abi":[{"type":"constructor","inputs":[],"stateMutability":"nonpayable"},{"type":"fallback","stateMutability":"nonpayable"},{"type":"receive","stateMutability":"payable"},{"type":"function","name":"VERSION","inputs":[],"outputs":[{"name":"","type":"string","internalType":"string"}],"stateMutability":"view"},{"type":"function","name":"addOwnerWithThreshold","inputs":[{"name":"owner","type":"address","internalType":"address"},{"name":"_threshold","type":"uint256","internalType":"uint256"}],"outputs":[],"stateMutability":"nonpayable"},{"type":"function","name":"approveHash","inputs":[{"name":"hashToApprove","type":"bytes32","internalType":"bytes32"}],"outputs":[],"stateMutability":"nonpayable"},{"type":"function","name":"approvedHashes","inputs":[{"name":"","type":"address","internalType":"address"},{"name":"","type":"bytes32","internalType":"bytes32"}],"outputs":[{"name":"","type":"uint256","internalType":"uint256"}],"stateMutability":"view"},{"type":"function","name":"changeThreshold","inputs":[{"name":"_threshold","type":"uint256","internalType":"uint256"}],"outputs":[],"stateMutability":"nonpayable"},{"type":"function","name":"checkNSignatures","inputs":[{"name":"dataHash","type":"bytes32","internalType":"bytes32"},{"name":"data","type":"bytes","internalType":"bytes"},{"name":"signatures","type":"bytes","internalType":"bytes"},{"name":"requiredSignatures","type":"uint256","internalType":"uint256"}],"outputs":[],"stateMutability":"view"},{"type":"function","name":"checkSignatures","inputs":[{"name":"dataHash","type":"bytes32","internalType":"bytes32"},{"name":"data","type":"bytes","internalType":"bytes"},{"name":"signatures","type":"bytes","internalType":"bytes"}],"outputs":[],"stateMutability":"view"},{"type":"function","name":"disableModule","inputs":[{"name":"prevModule","type":"address","internalType":"address"},{"name":"module","type":"address","internalType":"address"}],"outputs":[],"stateMutability":"nonpayable"},{"type":"function","name":"domainSeparator","inputs":[],"outputs":[{"name":"","type":"bytes32","internalType":"bytes32"}],"stateMutability":"view"},{"type":"function","name":"enableModule","inputs":[{"name":"module","type":"address","internalType":"address"}],"outputs":[],"stateMutability":"nonpayable"},{"type":"function","name":"encodeTransactionData","inputs":[{"name":"to","type":"address","internalType":"address"},{"name":"value","type":"uint256","internalType":"uint256"},{"name":"data","type":"bytes","internalType":"bytes"},{"name":"operation","type":"uint8","internalType":"enum Enum.Operation"},{"name":"safeTxGas","type":"uint256","internalType":"uint256"},{"name":"baseGas","type":"uint256","internalType":"uint256"},{"name":"gasPrice","type":"uint256","internalType":"uint256"},{"name":"gasToken","type":"address","internalType":"address"},{"name":"refundReceiver","type":"address","internalType":"address"},{"name":"_nonce","type":"uint256","internalType":"uint256"}],"outputs":[{"name":"","type":"bytes","internalType":"bytes"}],"stateMutability":"view"},{"type":"function","name":"execTransaction","inputs":[{"name":"to","type":"address","internalType":"address"},{"name":"value","type":"uint256","internalType":"uint256"},{"name":"data","type":"bytes","internalType":"bytes"},{"name":"operation","type":"uint8","internalType":"enum Enum.Operation"},{"name":"safeTxGas","type":"uint256","internalType":"uint256"},{"name":"baseGas","type":"uint256","internalType":"uint256"},{"name":"gasPrice","type":"uint256","internalType":"uint256"},{"name":"gasToken","type":"address","internalType":"address"},{"name":"refundReceiver","type":"address","internalType":"address payable"},{"name":"signatures","type":"bytes","internalType":"bytes"}],"outputs":[{"name":"success","type":"bool","internalType":"bool"}],"stateMutability":"payable"},{"type":"function","name":"execTransactionFromModule","inputs":[{"name":"to","type":"address","internalType":"address"},{"name":"value","type":"uint256","internalType":"uint256"},{"name":"data","type":"bytes","internalType":"bytes"},{"name":"operation","type":"uint8","internalType":"enum Enum.Operation"}],"outputs":[{"name":"success","type":"bool","internalType":"bool"}],"stateMutability":"nonpayable"},{"type":"function","name":"execTransactionFromModuleReturnData","inputs":[{"name":"to","type":"address","internalType":"address"},{"name":"value","type":"uint256","internalType":"uint256"},{"name":"data","type":"bytes","internalType":"bytes"},{"name":"operation","type":"uint8","internalType":"enum Enum.Operation"}],"outputs":[{"name":"success","type":"bool","internalType":"bool"},{"name":"returnData","type":"bytes","internalType":"bytes"}],"stateMutability":"nonpayable"},{"type":"function","name":"getChainId","inputs":[],"outputs":[{"name":"","type":"uint256","internalType":"uint256"}],"stateMutability":"view"},{"type":"function","name":"getModulesPaginated","inputs":[{"name":"start","type":"address","internalType":"address"},{"name":"pageSize","type":"uint256","internalType":"uint256"}],"outputs":[{"name":"array","type":"address[]","internalType":"address[]"},{"name":"next","type":"address","internalType":"address"}],"stateMutability":"view"},{"type":"function","name":"getOwners","inputs":[],"outputs":[{"name":"","type":"address[]","internalType":"address[]"}],"stateMutability":"view"},{"type":"function","name":"getStorageAt","inputs":[{"name":"offset","type":"uint256","internalType":"uint256"},{"name":"length","type":"uint256","internalType":"uint256"}],"outputs":[{"name":"","type":"bytes","internalType":"bytes"}],"stateMutability":"view"},{"type":"function","name":"getThreshold","inputs":[],"outputs":[{"name":"","type":"uint256","internalType":"uint256"}],"stateMutability":"view"},{"type":"function","name":"getTransactionHash","inputs":[{"name":"to","type":"address","internalType":"address"},{"name":"value","type":"uint256","internalType":"uint256"},{"name":"data","type":"bytes","internalType":"bytes"},{"name":"operation","type":"uint8","internalType":"enum Enum.Operation"},{"name":"safeTxGas","type":"uint256","internalType":"uint256"},{"name":"baseGas","type":"uint256","internalType":"uint256"},{"name":"gasPrice","type":"uint256","internalType":"uint256"},{"name":"gasToken","type":"address","internalType":"address"},{"name":"refundReceiver","type":"address","internalType":"address"},{"name":"_nonce","type":"uint256","internalType":"uint256"}],"outputs":[{"name":"","type":"bytes32","internalType":"bytes32"}],"stateMutability":"view"},{"type":"function","name":"isModuleEnabled","inputs":[{"name":"module","type":"address","internalType":"address"}],"outputs":[{"name":"","type":"bool","internalType":"bool"}],"stateMutability":"view"},{"type":"function","name":"isOwner","inputs":[{"name":"owner","type":"address","internalType":"address"}],"outputs":[{"name":"","type":"bool","internalType":"bool"}],"stateMutability":"view"},{"type":"function","name":"nonce","inputs":[],"outputs":[{"name":"","type":"uint256","internalType":"uint256"}],"stateMutability":"view"},{"type":"function","name":"removeOwner","inputs":[{"name":"prevOwner","type":"address","internalType":"address"},{"name":"owner","type":"address","internalType":"address"},{"name":"_threshold","type":"uint256","internalType":"uint256"}],"outputs":[],"stateMutability":"nonpayable"},{"type":"function","name":"setFallbackHandler","inputs":[{"name":"handler","type":"address","internalType":"address"}],"outputs":[],"stateMutability":"nonpayable"},{"type":"function","name":"setGuard","inputs":[{"name":"guard","type":"address","internalType":"address"}],"outputs":[],"stateMutability":"nonpayable"},{"type":"function","name":"setup","inputs":[{"name":"_owners","type":"address[]","internalType":"address[]"},{"name":"_threshold","type":"uint256","internalType":"uint256"},{"name":"to","type":"address","internalType":"address"},{"name":"data","type":"bytes","internalType":"bytes"},{"name":"fallbackHandler","type":"address","internalType":"address"},{"name":"paymentToken","type":"address","internalType":"address"},{"name":"payment","type":"uint256","internalType":"uint256"},{"name":"paymentReceiver","type":"address","internalType":"address payable"}],"outputs":[],"stateMutability":"nonpayable"},{"type":"function","name":"signedMessages","inputs":[{"name":"","type":"bytes32","internalType":"bytes32"}],"outputs":[{"name":"","type":"uint256","internalType":"uint256"}],"stateMutability":"view"},{"type":"function","name":"simulateAndRevert","inputs":[{"name":"targetContract","type":"address","internalType":"address"},{"name":"calldataPayload","type":"bytes","internalType":"bytes"}],"outputs":[],"stateMutability":"nonpayable"},{"type":"function","name":"swapOwner","inputs":[{"name":"prevOwner","type":"address","internalType":"address"},{"name":"oldOwner","type":"address","internalType":"address"},{"name":"newOwner","type":"address","internalType":"address"}],"outputs":[],"stateMutability":"nonpayable"},{"type":"event","name":"AddedOwner","inputs":[{"name":"owner","type":"address","indexed":true,"internalType":"address"}],"anonymous":false},{"type":"event","name":"ApproveHash","inputs":[{"name":"approvedHash","type":"bytes32","indexed":true,"internalType":"bytes32"},{"name":"owner","type":"address","indexed":true,"internalType":"address"}],"anonymous":false},{"type":"event","name":"ChangedFallbackHandler","inputs":[{"name":"handler","type":"address","indexed":true,"internalType":"address"}],"anonymous":false},{"type":"event","name":"ChangedGuard","inputs":[{"name":"guard","type":"address","indexed":true,"internalType":"address"}],"anonymous":false},{"type":"event","name":"ChangedThreshold","inputs":[{"name":"threshold","type":"uint256","indexed":false,"internalType":"uint256"}],"anonymous":false},{"type":"event","name":"DisabledModule","inputs":[{"name":"module","type":"address","indexed":true,"internalType":"address"}],"anonymous":false},{"type":"event","name":"EnabledModule","inputs":[{"name":"module","type":"address","indexed":true,"internalType":"address"}],"anonymous":false},{"type":"event","name":"ExecutionFailure","inputs":[{"name":"txHash","type":"bytes32","indexed":true,"internalType":"bytes32"},{"name":"payment","type":"uint256","indexed":false,"internalType":"uint256"}],"anonymous":false},{"type":"event","name":"ExecutionFromModuleFailure","inputs":[{"name":"module","type":"address","indexed":true,"internalType":"address"}],"anonymous":false},{"type":"event","name":"ExecutionFromModuleSuccess","inputs":[{"name":"module","type":"address","indexed":true,"internalType":"address"}],"anonymous":false},{"type":"event","name":"ExecutionSuccess","inputs":[{"name":"txHash","type":"bytes32","indexed":true,"internalType":"bytes32"},{"name":"payment","type":"uint256","indexed":false,"internalType":"uint256"}],"anonymous":false},{"type":"event","name":"RemovedOwner","inputs":[{"name":"owner","type":"address","indexed":true,"internalType":"address"}],"anonymous":false},{"type":"event","name":"SafeReceived","inputs":[{"name":"sender","type":"address","indexed":true,"internalType":"address"},{"name":"value","type":"uint256","indexed":false,"internalType":"uint256"}],"anonymous":false},{"type":"event","name":"SafeSetup","inputs":[{"name":"initiator","type":"address","indexed":true,"internalType":"address"},{"name":"owners","type":"address[]","indexed":false,"internalType":"address[]"},{"name":"threshold","type":"uint256","indexed":false,"internalType":"uint256"},{"name":"initializer","type":"address","indexed":false,"internalType":"address"},{"name":"fallbackHandler","type":"address","indexed":false,"internalType":"address"}],"anonymous":false},{"type":"event","name":"SignMsg","inputs":[{"name":"msgHash","type":"bytes32","indexed":true,"internalType":"bytes32"}],"anonymous":false}],"bytecode":{"object":"0x608060405234801561001057600080fd5b50600160045561420a806100256000396000f3fe6080604052600436106101d15760003560e01c8063affed0e0116100f7578063e19a9dd911610095578063f08a032311610064578063f08a0323146105f5578063f698da2514610615578063f8dc5dd91461067c578063ffa1ad741461069c5761020d565b8063e19a9dd914610580578063e318b52b146105a0578063e75235b8146105c0578063e86637db146105d55761020d565b8063cc2f8452116100d1578063cc2f8452146104f2578063d4d9bdcd14610520578063d8d11f7814610540578063e009cfde146105605761020d565b8063affed0e01461049c578063b4faba09146104b2578063b63e800d146104d25761020d565b80635624b25b1161016f5780636a7612021161013e5780636a7612021461040f5780637d83297414610422578063934f3a111461045a578063a0e67e2b1461047a5761020d565b80635624b25b146103755780635ae6bd37146103a2578063610b5925146103cf578063694e80c3146103ef5761020d565b80632f54bf6e116101ab5780632f54bf6e146102ea5780633408e4701461030a578063468721a7146103275780635229073f146103475761020d565b80630d582f131461027357806312fb68e0146102955780632d9ad53d146102b55761020d565b3661020d5760405134815233907f3d0ce9bfc3ed7d6862dbb28b2dea94561fe714a1b4d019aa8af39730d1ad7c3d9060200160405180910390a2005b34801561021957600080fd5b507f6c9a6c4a39284e37ed1cf53d337577d14212a4870fb976a4366c693b939918d580548061024457005b36600080373360601b365260008060143601600080855af190503d6000803e8061026d573d6000fd5b503d6000f35b34801561027f57600080fd5b5061029361028e366004613588565b6106e5565b005b3480156102a157600080fd5b506102936102b036600461368e565b610933565b3480156102c157600080fd5b506102d56102d0366004613703565b610ff7565b60405190151581526020015b60405180910390f35b3480156102f657600080fd5b506102d5610305366004613703565b61104c565b34801561031657600080fd5b50465b6040519081526020016102e1565b34801561033357600080fd5b506102d561034236600461372f565b61109e565b34801561035357600080fd5b5061036761036236600461372f565b6111d4565b6040516102e19291906137fd565b34801561038157600080fd5b50610395610390366004613818565b61120a565b6040516102e1919061383a565b3480156103ae57600080fd5b506103196103bd36600461384d565b60076020526000908152604090205481565b3480156103db57600080fd5b506102936103ea366004613703565b611290565b3480156103fb57600080fd5b5061029361040a36600461384d565b611479565b6102d561041d3660046138af565b611593565b34801561042e57600080fd5b5061031961043d366004613588565b600860209081526000928352604080842090915290825290205481565b34801561046657600080fd5b50610293610475366004613988565b61198f565b34801561048657600080fd5b5061048f611a0b565b6040516102e19190613a46565b3480156104a857600080fd5b5061031960055481565b3480156104be57600080fd5b506102936104cd366004613a59565b611b23565b3480156104de57600080fd5b506102936104ed366004613aa9565b611b46565b3480156104fe57600080fd5b5061051261050d366004613588565b611c62565b6040516102e1929190613b9e565b34801561052c57600080fd5b5061029361053b36600461384d565b611ed0565b34801561054c57600080fd5b5061031961055b366004613bd6565b611fa4565b34801561056c57600080fd5b5061029361057b366004613c97565b611fd1565b34801561058c57600080fd5b5061029361059b366004613703565b6121a3565b3480156105ac57600080fd5b506102936105bb366004613cd0565b612344565b3480156105cc57600080fd5b50600454610319565b3480156105e157600080fd5b506103956105f0366004613bd6565b6126bc565b34801561060157600080fd5b50610293610610366004613703565b612855565b34801561062157600080fd5b5061031960007f47e79534a245952e8b16893a336b85a3d9ea9fa8c573f3d803afb92a794692184660408051602081019390935282015230606082015260800160405160208183030381529060405280519060200120905090565b34801561068857600080fd5b50610293610697366004613d1b565b6128aa565b3480156106a857600080fd5b506103956040518060400160405280600581526020017f312e342e3100000000000000000000000000000000000000000000000000000081525081565b6106ed612b34565b73ffffffffffffffffffffffffffffffffffffffff821615801590610729575073ffffffffffffffffffffffffffffffffffffffff8216600114155b801561074b575073ffffffffffffffffffffffffffffffffffffffff82163014155b6107b6576040517f08c379a000000000000000000000000000000000000000000000000000000000815260206004820152600560248201527f475332303300000000000000000000000000000000000000000000000000000060448201526064015b60405180910390fd5b73ffffffffffffffffffffffffffffffffffffffff8281166000908152600260205260409020541615610845576040517f08c379a000000000000000000000000000000000000000000000000000000000815260206004820152600560248201527f475332303400000000000000000000000000000000000000000000000000000060448201526064016107ad565b60026020527fe90b7bceb6e7df5418fb78d8ee546e97c83a08bbccc01a0644d599ccd2a7c2e0805473ffffffffffffffffffffffffffffffffffffffff8481166000818152604081208054939094167fffffffffffffffffffffffff0000000000000000000000000000000000000000938416179093556001835283549091161790915560038054916108d783613d8b565b909155505060405173ffffffffffffffffffffffffffffffffffffffff8316907f9465fa0c962cc76958e6373a993326400c1c94f8be2fe3a952adfa7f60b2ea2690600090a2806004541461092f5761092f81611479565b5050565b61093e816041612b9f565b825110156109a8576040517f08c379a000000000000000000000000000000000000000000000000000000000815260206004820152600560248201527f475330323000000000000000000000000000000000000000000000000000000060448201526064016107ad565b6000808060008060005b86811015610feb576041818102890160208101516040820151919092015160ff16955090935091506000849003610cf857885160208a01208a14610a52576040517f08c379a000000000000000000000000000000000000000000000000000000000815260206004820152600560248201527f475330323700000000000000000000000000000000000000000000000000000060448201526064016107ad565b9193508391610a62876041612b9f565b821015610acb576040517f08c379a000000000000000000000000000000000000000000000000000000000815260206004820152600560248201527f475330323100000000000000000000000000000000000000000000000000000060448201526064016107ad565b8751610ad8836020612bdb565b1115610b40576040517f08c379a000000000000000000000000000000000000000000000000000000000815260206004820152600560248201527f475330323200000000000000000000000000000000000000000000000000000060448201526064016107ad565b602082890181015189519091610b63908390610b5d908790612bdb565b90612bdb565b1115610bcb576040517f08c379a000000000000000000000000000000000000000000000000000000000815260206004820152600560248201527f475330323300000000000000000000000000000000000000000000000000000060448201526064016107ad565b6040517f20c13b0b000000000000000000000000000000000000000000000000000000008082528a85016020019173ffffffffffffffffffffffffffffffffffffffff8916906320c13b0b90610c27908f908690600401613dc3565b602060405180830381865afa158015610c44573d6000803e3d6000fd5b505050506040513d601f19601f82011682018060405250810190610c689190613de8565b7fffffffff000000000000000000000000000000000000000000000000000000001614610cf1576040517f08c379a000000000000000000000000000000000000000000000000000000000815260206004820152600560248201527f475330323400000000000000000000000000000000000000000000000000000060448201526064016107ad565b5050610eeb565b8360ff16600103610dc65791935083913373ffffffffffffffffffffffffffffffffffffffff84161480610d5b575073ffffffffffffffffffffffffffffffffffffffff851660009081526008602090815260408083208d845290915290205415155b610dc1576040517f08c379a000000000000000000000000000000000000000000000000000000000815260206004820152600560248201527f475330323500000000000000000000000000000000000000000000000000000060448201526064016107ad565b610eeb565b601e8460ff161115610e8b576040517f19457468657265756d205369676e6564204d6573736167653a0a3332000000006020820152603c81018b9052600190605c0160405160208183030381529060405280519060200120600486610e2b9190613e2a565b6040805160008152602081018083529390935260ff90911690820152606081018590526080810184905260a0016020604051602081039080840390855afa158015610e7a573d6000803e3d6000fd5b505050602060405103519450610eeb565b6040805160008152602081018083528c905260ff861691810191909152606081018490526080810183905260019060a0016020604051602081039080840390855afa158015610ede573d6000803e3d6000fd5b5050506020604051035194505b8573ffffffffffffffffffffffffffffffffffffffff168573ffffffffffffffffffffffffffffffffffffffff16118015610f4c575073ffffffffffffffffffffffffffffffffffffffff8581166000908152600260205260409020541615155b8015610f6f575073ffffffffffffffffffffffffffffffffffffffff8516600114155b610fd5576040517f08c379a000000000000000000000000000000000000000000000000000000000815260206004820152600560248201527f475330323600000000000000000000000000000000000000000000000000000060448201526064016107ad565b8495508080610fe390613d8b565b9150506109b2565b50505050505050505050565b6000600173ffffffffffffffffffffffffffffffffffffffff831614801590611046575073ffffffffffffffffffffffffffffffffffffffff8281166000908152600160205260409020541615155b92915050565b600073ffffffffffffffffffffffffffffffffffffffff821660011480159061104657505073ffffffffffffffffffffffffffffffffffffffff90811660009081526002602052604090205416151590565b6000336001148015906110d557503360009081526001602052604090205473ffffffffffffffffffffffffffffffffffffffff1615155b61113b576040517f08c379a000000000000000000000000000000000000000000000000000000000815260206004820152600560248201527f475331303400000000000000000000000000000000000000000000000000000060448201526064016107ad565b611168858585857fffffffffffffffffffffffffffffffffffffffffffffffffffffffffffffffff612bf7565b905080156111a05760405133907f6895c13664aa4f67288b25d7a21d7aaa34916e355fb9b6fae0a139a9085becb890600090a26111cc565b60405133907facd2c8702804128fdb0db2bb49f6d127dd0181c13fd45dbfe16de0930e2bd37590600090a25b949350505050565b600060606111e48686868661109e565b915060405160203d0181016040523d81523d6000602083013e8091505094509492505050565b60606000611219836020613e43565b67ffffffffffffffff811115611231576112316135b4565b6040519080825280601f01601f19166020018201604052801561125b576020820181803683370190505b50905060005b8381101561128857848101546020808302840101528061128081613d8b565b915050611261565b509392505050565b611298612b34565b73ffffffffffffffffffffffffffffffffffffffff8116158015906112d4575073ffffffffffffffffffffffffffffffffffffffff8116600114155b61133a576040517f08c379a000000000000000000000000000000000000000000000000000000000815260206004820152600560248201527f475331303100000000000000000000000000000000000000000000000000000060448201526064016107ad565b73ffffffffffffffffffffffffffffffffffffffff81811660009081526001602052604090205416156113c9576040517f08c379a000000000000000000000000000000000000000000000000000000000815260206004820152600560248201527f475331303200000000000000000000000000000000000000000000000000000060448201526064016107ad565b600160208190527fcc69885fda6bcc1a4ace058b4a62bf5e179ea78fd58a1ccd71c22cc9b688792f805473ffffffffffffffffffffffffffffffffffffffff848116600081815260408082208054949095167fffffffffffffffffffffffff000000000000000000000000000000000000000094851617909455948552835490911681179092555190917fecdf3a3effea5783a3c4c2140e677577666428d44ed9d474a0b3a4c9943f844091a250565b611481612b34565b6003548111156114ed576040517f08c379a000000000000000000000000000000000000000000000000000000000815260206004820152600560248201527f475332303100000000000000000000000000000000000000000000000000000060448201526064016107ad565b6001811015611558576040517f08c379a000000000000000000000000000000000000000000000000000000000815260206004820152600560248201527f475332303200000000000000000000000000000000000000000000000000000060448201526064016107ad565b60048190556040518181527f610f7ff2b304ae8903c3de74c60c6ab1f7d6226b3f52c5161905bb5ad4039c939060200160405180910390a150565b60008060006115ad8e8e8e8e8e8e8e8e8e8e6005546126bc565b6005805491925060006115bf83613d8b565b90915550508051602082012091506115d882828661198f565b5060006116037f4a204f620c8c5ccdca3fd54d003badd85ba500436a431f0cbda4f558c93c34c85490565b905073ffffffffffffffffffffffffffffffffffffffff8116156116a3578073ffffffffffffffffffffffffffffffffffffffff166375f0bb528f8f8f8f8f8f8f8f8f8f8f336040518d63ffffffff1660e01b81526004016116709c9b9a99989796959493929190613ec4565b600060405180830381600087803b15801561168a57600080fd5b505af115801561169e573d6000803e3d6000fd5b505050505b6116cf6116b28a6109c4613fda565b603f6116bf8c6040613e43565b6116c99190613fed565b90612c3e565b6116db906101f4613fda565b5a1015611744576040517f08c379a000000000000000000000000000000000000000000000000000000000815260206004820152600560248201527f475330313000000000000000000000000000000000000000000000000000000060448201526064016107ad565b60005a90506117b58f8f8f8f8080601f016020809104026020016040519081016040528093929190818152602001838380828437600081840152601f19601f820116905080830192505050505050508e8c6000146117a2578e612bf7565b6109c45a6117b09190614028565b612bf7565b93506117c25a8290612c55565b905083806117cf57508915155b806117d957508715155b61183f576040517f08c379a000000000000000000000000000000000000000000000000000000000815260206004820152600560248201527f475330313300000000000000000000000000000000000000000000000000000060448201526064016107ad565b6000881561185757611854828b8b8b8b612c70565b90505b841561189c57837f442e715f626346e8c54381002da614f62bee8d27386535b2521ec8540898556e8260405161188f91815260200190565b60405180910390a26118d7565b837f23428b18acfb3ea64b08dc0c1d296ea9c09702c09083ca5272e64d115b687d23826040516118ce91815260200190565b60405180910390a25b505073ffffffffffffffffffffffffffffffffffffffff81161561197e576040517f9327136800000000000000000000000000000000000000000000000000000000815260048101839052831515602482015273ffffffffffffffffffffffffffffffffffffffff821690639327136890604401600060405180830381600087803b15801561196557600080fd5b505af1158015611979573d6000803e3d6000fd5b505050505b50509b9a5050505050505050505050565b600454806119f9576040517f08c379a000000000000000000000000000000000000000000000000000000000815260206004820152600560248201527f475330303100000000000000000000000000000000000000000000000000000060448201526064016107ad565b611a0584848484610933565b50505050565b6060600060035467ffffffffffffffff811115611a2a57611a2a6135b4565b604051908082528060200260200182016040528015611a53578160200160208202803683370190505b506001600090815260026020527fe90b7bceb6e7df5418fb78d8ee546e97c83a08bbccc01a0644d599ccd2a7c2e0549192509073ffffffffffffffffffffffffffffffffffffffff165b73ffffffffffffffffffffffffffffffffffffffff8116600114611b1b5780838381518110611ace57611ace61403b565b73ffffffffffffffffffffffffffffffffffffffff928316602091820292909201810191909152918116600090815260029092526040909120541681611b1381613d8b565b925050611a9d565b509092915050565b600080825160208401855af480600052503d6020523d600060403e60403d016000fd5b611b848a8a808060200260200160405190810160405280939291908181526020018383602002808284376000920191909152508c9250612e01915050565b73ffffffffffffffffffffffffffffffffffffffff841615611ba957611ba9846131ce565b611be98787878080601f01602080910402602001604051908101604052809392919081815260200183838082843760009201919091525061327192505050565b8115611c0057611bfe82600060018685612c70565b505b3373ffffffffffffffffffffffffffffffffffffffff167f141df868a6331af528e38c83b7aa03edc19be66e37ae67f9285bf4f8e3c6a1a88b8b8b8b89604051611c4e95949392919061406a565b60405180910390a250505050505050505050565b6060600073ffffffffffffffffffffffffffffffffffffffff841660011480611c8f5750611c8f84610ff7565b611cf5576040517f08c379a000000000000000000000000000000000000000000000000000000000815260206004820152600560248201527f475331303500000000000000000000000000000000000000000000000000000060448201526064016107ad565b60008311611d5f576040517f08c379a000000000000000000000000000000000000000000000000000000000815260206004820152600560248201527f475331303600000000000000000000000000000000000000000000000000000060448201526064016107ad565b8267ffffffffffffffff811115611d7857611d786135b4565b604051908082528060200260200182016040528015611da1578160200160208202803683370190505b5073ffffffffffffffffffffffffffffffffffffffff808616600090815260016020526040812054929450911691505b73ffffffffffffffffffffffffffffffffffffffff821615801590611e0d575073ffffffffffffffffffffffffffffffffffffffff8216600114155b8015611e1857508381105b15611e805781838281518110611e3057611e3061403b565b73ffffffffffffffffffffffffffffffffffffffff928316602091820292909201810191909152928116600090815260019093526040909220549091169080611e7881613d8b565b915050611dd1565b73ffffffffffffffffffffffffffffffffffffffff8216600114611ec55782611eaa600183614028565b81518110611eba57611eba61403b565b602002602001015191505b808352509250929050565b3360009081526002602052604090205473ffffffffffffffffffffffffffffffffffffffff16611f5c576040517f08c379a000000000000000000000000000000000000000000000000000000000815260206004820152600560248201527f475330333000000000000000000000000000000000000000000000000000000060448201526064016107ad565b336000818152600860209081526040808320858452909152808220600190555183917ff2a0eb156472d1440255b0d7c1e19cc07115d1051fe605b0dce69acfec884d9c91a350565b6000611fb98c8c8c8c8c8c8c8c8c8c8c6126bc565b8051906020012090509b9a5050505050505050505050565b611fd9612b34565b73ffffffffffffffffffffffffffffffffffffffff811615801590612015575073ffffffffffffffffffffffffffffffffffffffff8116600114155b61207b576040517f08c379a000000000000000000000000000000000000000000000000000000000815260206004820152600560248201527f475331303100000000000000000000000000000000000000000000000000000060448201526064016107ad565b73ffffffffffffffffffffffffffffffffffffffff82811660009081526001602052604090205481169082161461210e576040517f08c379a000000000000000000000000000000000000000000000000000000000815260206004820152600560248201527f475331303300000000000000000000000000000000000000000000000000000060448201526064016107ad565b73ffffffffffffffffffffffffffffffffffffffff818116600081815260016020526040808220805487861684528284208054919096167fffffffffffffffffffffffff0000000000000000000000000000000000000000918216179095558383528054909416909355915190917faab4fa2b463f581b2b32cb3b7e3b704b9ce37cc209b5fb4d77e593ace405427691a25050565b6121ab612b34565b73ffffffffffffffffffffffffffffffffffffffff8116156122db576040517f01ffc9a70000000000000000000000000000000000000000000000000000000081527fe6d7a83a00000000000000000000000000000000000000000000000000000000600482015273ffffffffffffffffffffffffffffffffffffffff8216906301ffc9a790602401602060405180830381865afa158015612251573d6000803e3d6000fd5b505050506040513d601f19601f8201168201806040525081019061227591906140f0565b6122db576040517f08c379a000000000000000000000000000000000000000000000000000000000815260206004820152600560248201527f475333303000000000000000000000000000000000000000000000000000000060448201526064016107ad565b7f4a204f620c8c5ccdca3fd54d003badd85ba500436a431f0cbda4f558c93c34c881815560405173ffffffffffffffffffffffffffffffffffffffff8316907f1151116914515bc0891ff9047a6cb32cf902546f83066499bcf8ba33d2353fa290600090a25050565b61234c612b34565b73ffffffffffffffffffffffffffffffffffffffff811615801590612388575073ffffffffffffffffffffffffffffffffffffffff8116600114155b80156123aa575073ffffffffffffffffffffffffffffffffffffffff81163014155b612410576040517f08c379a000000000000000000000000000000000000000000000000000000000815260206004820152600560248201527f475332303300000000000000000000000000000000000000000000000000000060448201526064016107ad565b73ffffffffffffffffffffffffffffffffffffffff818116600090815260026020526040902054161561249f576040517f08c379a000000000000000000000000000000000000000000000000000000000815260206004820152600560248201527f475332303400000000000000000000000000000000000000000000000000000060448201526064016107ad565b73ffffffffffffffffffffffffffffffffffffffff8216158015906124db575073ffffffffffffffffffffffffffffffffffffffff8216600114155b612541576040517f08c379a000000000000000000000000000000000000000000000000000000000815260206004820152600560248201527f475332303300000000000000000000000000000000000000000000000000000060448201526064016107ad565b73ffffffffffffffffffffffffffffffffffffffff8381166000908152600260205260409020548116908316146125d4576040517f08c379a000000000000000000000000000000000000000000000000000000000815260206004820152600560248201527f475332303500000000000000000000000000000000000000000000000000000060448201526064016107ad565b73ffffffffffffffffffffffffffffffffffffffff828116600081815260026020526040808220805486861680855283852080549288167fffffffffffffffffffffffff00000000000000000000000000000000000000009384161790559589168452828420805482169096179095558383528054909416909355915190917ff8d49fc529812e9a7c5c50e69c20f0dccc0db8fa95c98bc58cc9a4f1c1299eaf91a260405173ffffffffffffffffffffffffffffffffffffffff8216907f9465fa0c962cc76958e6373a993326400c1c94f8be2fe3a952adfa7f60b2ea2690600090a2505050565b606060007fbb8310d486368db6bd6f849402fdd73ad53d316b5a4b2644ad6efe0f941286d860001b8d8d8d8d6040516126f6929190614112565b60405190819003812061271c949392918e908e908e908e908e908e908e90602001614122565b604080517fffffffffffffffffffffffffffffffffffffffffffffffffffffffffffffffe0818403018152919052805160209091012090507f19000000000000000000000000000000000000000000000000000000000000007f01000000000000000000000000000000000000000000000000000000000000006127f060007f47e79534a245952e8b16893a336b85a3d9ea9fa8c573f3d803afb92a794692184660408051602081019390935282015230606082015260800160405160208183030381529060405280519060200120905090565b6040517fff0000000000000000000000000000000000000000000000000000000000000093841660208201529290911660218301526022820152604281018290526062016040516020818303038152906040529150509b9a5050505050505050505050565b61285d612b34565b612866816131ce565b60405173ffffffffffffffffffffffffffffffffffffffff8216907f5ac6c46c93c8d0e53714ba3b53db3e7c046da994313d7ed0d192028bc7c228b090600090a250565b6128b2612b34565b8060016003546128c29190614028565b101561292a576040517f08c379a000000000000000000000000000000000000000000000000000000000815260206004820152600560248201527f475332303100000000000000000000000000000000000000000000000000000060448201526064016107ad565b73ffffffffffffffffffffffffffffffffffffffff821615801590612966575073ffffffffffffffffffffffffffffffffffffffff8216600114155b6129cc576040517f08c379a000000000000000000000000000000000000000000000000000000000815260206004820152600560248201527f475332303300000000000000000000000000000000000000000000000000000060448201526064016107ad565b73ffffffffffffffffffffffffffffffffffffffff838116600090815260026020526040902054811690831614612a5f576040517f08c379a000000000000000000000000000000000000000000000000000000000815260206004820152600560248201527f475332303500000000000000000000000000000000000000000000000000000060448201526064016107ad565b73ffffffffffffffffffffffffffffffffffffffff828116600081815260026020526040808220805488861684529183208054929095167fffffffffffffffffffffffff00000000000000000000000000000000000000009283161790945591815282549091169091556003805491612ad78361419f565b909155505060405173ffffffffffffffffffffffffffffffffffffffff8316907ff8d49fc529812e9a7c5c50e69c20f0dccc0db8fa95c98bc58cc9a4f1c1299eaf90600090a28060045414612b2f57612b2f81611479565b505050565b333014612b9d576040517f08c379a000000000000000000000000000000000000000000000000000000000815260206004820152600560248201527f475330333100000000000000000000000000000000000000000000000000000060448201526064016107ad565b565b600082600003612bb157506000611046565b6000612bbd8385613e43565b905082612bca8583613fed565b14612bd457600080fd5b9392505050565b600080612be88385613fda565b905083811015612bd457600080fd5b60006001836001811115612c0d57612c0d613e5a565b03612c25576000808551602087018986f49050612c35565b600080855160208701888a87f190505b95945050505050565b600081831015612c4e5781612bd4565b5090919050565b600082821115612c6457600080fd5b60006111cc8385614028565b60008073ffffffffffffffffffffffffffffffffffffffff831615612c955782612c97565b325b905073ffffffffffffffffffffffffffffffffffffffff8416612d7657612cd63a8610612cc4573a612cc6565b855b612cd08989612bdb565b90612b9f565b60405190925073ffffffffffffffffffffffffffffffffffffffff82169083156108fc029084906000818181858888f19350505050612d71576040517f08c379a000000000000000000000000000000000000000000000000000000000815260206004820152600560248201527f475330313100000000000000000000000000000000000000000000000000000060448201526064016107ad565b612df7565b612d8485612cd08989612bdb565b9150612d91848284613489565b612df7576040517f08c379a000000000000000000000000000000000000000000000000000000000815260206004820152600560248201527f475330313200000000000000000000000000000000000000000000000000000060448201526064016107ad565b5095945050505050565b60045415612e6b576040517f08c379a000000000000000000000000000000000000000000000000000000000815260206004820152600560248201527f475332303000000000000000000000000000000000000000000000000000000060448201526064016107ad565b8151811115612ed6576040517f08c379a000000000000000000000000000000000000000000000000000000000815260206004820152600560248201527f475332303100000000000000000000000000000000000000000000000000000060448201526064016107ad565b6001811015612f41576040517f08c379a000000000000000000000000000000000000000000000000000000000815260206004820152600560248201527f475332303200000000000000000000000000000000000000000000000000000060448201526064016107ad565b600160005b8351811015613176576000848281518110612f6357612f6361403b565b60200260200101519050600073ffffffffffffffffffffffffffffffffffffffff168173ffffffffffffffffffffffffffffffffffffffff1614158015612fc1575073ffffffffffffffffffffffffffffffffffffffff8116600114155b8015612fe3575073ffffffffffffffffffffffffffffffffffffffff81163014155b801561301b57508073ffffffffffffffffffffffffffffffffffffffff168373ffffffffffffffffffffffffffffffffffffffff1614155b613081576040517f08c379a000000000000000000000000000000000000000000000000000000000815260206004820152600560248201527f475332303300000000000000000000000000000000000000000000000000000060448201526064016107ad565b73ffffffffffffffffffffffffffffffffffffffff8181166000908152600260205260409020541615613110576040517f08c379a000000000000000000000000000000000000000000000000000000000815260206004820152600560248201527f475332303400000000000000000000000000000000000000000000000000000060448201526064016107ad565b73ffffffffffffffffffffffffffffffffffffffff928316600090815260026020526040902080547fffffffffffffffffffffffff000000000000000000000000000000000000000016938216939093179092558061316e81613d8b565b915050612f46565b5073ffffffffffffffffffffffffffffffffffffffff16600090815260026020526040902080547fffffffffffffffffffffffff00000000000000000000000000000000000000001660011790559051600355600455565b3073ffffffffffffffffffffffffffffffffffffffff82160361324d576040517f08c379a000000000000000000000000000000000000000000000000000000000815260206004820152600560248201527f475334303000000000000000000000000000000000000000000000000000000060448201526064016107ad565b7f6c9a6c4a39284e37ed1cf53d337577d14212a4870fb976a4366c693b939918d555565b600160008190526020527fcc69885fda6bcc1a4ace058b4a62bf5e179ea78fd58a1ccd71c22cc9b688792f5473ffffffffffffffffffffffffffffffffffffffff161561331a576040517f08c379a000000000000000000000000000000000000000000000000000000000815260206004820152600560248201527f475331303000000000000000000000000000000000000000000000000000000060448201526064016107ad565b6001600081905260208190527fcc69885fda6bcc1a4ace058b4a62bf5e179ea78fd58a1ccd71c22cc9b688792f80547fffffffffffffffffffffffff000000000000000000000000000000000000000016909117905573ffffffffffffffffffffffffffffffffffffffff82161561092f57813b6133f4576040517f08c379a000000000000000000000000000000000000000000000000000000000815260206004820152600560248201527f475330303200000000000000000000000000000000000000000000000000000060448201526064016107ad565b6134238260008360017fffffffffffffffffffffffffffffffffffffffffffffffffffffffffffffffff612bf7565b61092f576040517f08c379a000000000000000000000000000000000000000000000000000000000815260206004820152600560248201527f475330303000000000000000000000000000000000000000000000000000000060448201526064016107ad565b6040805173ffffffffffffffffffffffffffffffffffffffff841660248201526044808201849052825180830390910181526064909101909152602080820180517bffffffffffffffffffffffffffffffffffffffffffffffffffffffff167fa9059cbb000000000000000000000000000000000000000000000000000000001781528251600093929184919082896127105a03f13d8015613536576020811461353e5760009350613549565b819350613549565b600051158215171593505b5050509392505050565b73ffffffffffffffffffffffffffffffffffffffff8116811461357557600080fd5b50565b803561358381613553565b919050565b6000806040838503121561359b57600080fd5b82356135a681613553565b946020939093013593505050565b7f4e487b7100000000000000000000000000000000000000000000000000000000600052604160045260246000fd5b600082601f8301126135f457600080fd5b813567ffffffffffffffff8082111561360f5761360f6135b4565b604051601f83017fffffffffffffffffffffffffffffffffffffffffffffffffffffffffffffffe0908116603f01168101908282118183101715613655576136556135b4565b8160405283815286602085880101111561366e57600080fd5b836020870160208301376000602085830101528094505050505092915050565b600080600080608085870312156136a457600080fd5b84359350602085013567ffffffffffffffff808211156136c357600080fd5b6136cf888389016135e3565b945060408701359150808211156136e557600080fd5b506136f2878288016135e3565b949793965093946060013593505050565b60006020828403121561371557600080fd5b8135612bd481613553565b80356002811061358357600080fd5b6000806000806080858703121561374557600080fd5b843561375081613553565b935060208501359250604085013567ffffffffffffffff81111561377357600080fd5b61377f878288016135e3565b92505061378e60608601613720565b905092959194509250565b6000815180845260005b818110156137bf576020818501810151868301820152016137a3565b5060006020828601015260207fffffffffffffffffffffffffffffffffffffffffffffffffffffffffffffffe0601f83011685010191505092915050565b82151581526040602082015260006111cc6040830184613799565b6000806040838503121561382b57600080fd5b50508035926020909101359150565b602081526000612bd46020830184613799565b60006020828403121561385f57600080fd5b5035919050565b60008083601f84011261387857600080fd5b50813567ffffffffffffffff81111561389057600080fd5b6020830191508360208285010111156138a857600080fd5b9250929050565b60008060008060008060008060008060006101408c8e0312156138d157600080fd5b6138da8c613578565b9a5060208c0135995067ffffffffffffffff8060408e013511156138fd57600080fd5b61390d8e60408f01358f01613866565b909a50985061391e60608e01613720565b975060808d0135965060a08d0135955060c08d0135945061394160e08e01613578565b93506139506101008e01613578565b9250806101208e0135111561396457600080fd5b506139768d6101208e01358e016135e3565b90509295989b509295989b9093969950565b60008060006060848603121561399d57600080fd5b83359250602084013567ffffffffffffffff808211156139bc57600080fd5b6139c8878388016135e3565b935060408601359150808211156139de57600080fd5b506139eb868287016135e3565b9150509250925092565b600081518084526020808501945080840160005b83811015613a3b57815173ffffffffffffffffffffffffffffffffffffffff1687529582019590820190600101613a09565b509495945050505050565b602081526000612bd460208301846139f5565b60008060408385031215613a6c57600080fd5b8235613a7781613553565b9150602083013567ffffffffffffffff811115613a9357600080fd5b613a9f858286016135e3565b9150509250929050565b6000806000806000806000806000806101008b8d031215613ac957600080fd5b8a3567ffffffffffffffff80821115613ae157600080fd5b818d0191508d601f830112613af557600080fd5b813581811115613b0457600080fd5b8e60208260051b8501011115613b1957600080fd5b60208381019d50909b508d01359950613b3460408e01613578565b985060608d0135915080821115613b4a57600080fd5b50613b578d828e01613866565b9097509550613b6a905060808c01613578565b9350613b7860a08c01613578565b925060c08b01359150613b8d60e08c01613578565b90509295989b9194979a5092959850565b604081526000613bb160408301856139f5565b905073ffffffffffffffffffffffffffffffffffffffff831660208301529392505050565b60008060008060008060008060008060006101408c8e031215613bf857600080fd5b8b35613c0381613553565b9a5060208c0135995060408c013567ffffffffffffffff811115613c2657600080fd5b613c328e828f01613866565b909a509850613c45905060608d01613720565b965060808c0135955060a08c0135945060c08c0135935060e08c0135613c6a81613553565b92506101008c0135613c7b81613553565b809250506101208c013590509295989b509295989b9093969950565b60008060408385031215613caa57600080fd5b8235613cb581613553565b91506020830135613cc581613553565b809150509250929050565b600080600060608486031215613ce557600080fd5b8335613cf081613553565b92506020840135613d0081613553565b91506040840135613d1081613553565b809150509250925092565b600080600060608486031215613d3057600080fd5b8335613d3b81613553565b92506020840135613d4b81613553565b929592945050506040919091013590565b7f4e487b7100000000000000000000000000000000000000000000000000000000600052601160045260246000fd5b60007fffffffffffffffffffffffffffffffffffffffffffffffffffffffffffffffff8203613dbc57613dbc613d5c565b5060010190565b604081526000613dd66040830185613799565b8281036020840152612c358185613799565b600060208284031215613dfa57600080fd5b81517fffffffff0000000000000000000000000000000000000000000000000000000081168114612bd457600080fd5b60ff828116828216039081111561104657611046613d5c565b808202811582820484141761104657611046613d5c565b7f4e487b7100000000000000000000000000000000000000000000000000000000600052602160045260246000fd5b60028110613ec0577f4e487b7100000000000000000000000000000000000000000000000000000000600052602160045260246000fd5b9052565b600061016073ffffffffffffffffffffffffffffffffffffffff8f1683528d60208401528060408401528b81840152506101808b8d828501376000818d850101527fffffffffffffffffffffffffffffffffffffffffffffffffffffffffffffffe0601f8d01168301613f3a606085018d613e89565b8a60808501528960a08501528860c0850152613f6e60e085018973ffffffffffffffffffffffffffffffffffffffff169052565b73ffffffffffffffffffffffffffffffffffffffff87166101008501528184820301610120850152613fa282820187613799565b92505050613fc961014083018473ffffffffffffffffffffffffffffffffffffffff169052565b9d9c50505050505050505050505050565b8082018082111561104657611046613d5c565b600082614023577f4e487b7100000000000000000000000000000000000000000000000000000000600052601260045260246000fd5b500490565b8181038181111561104657611046613d5c565b7f4e487b7100000000000000000000000000000000000000000000000000000000600052603260045260246000fd5b6080808252810185905260008660a08301825b888110156140ba57823561409081613553565b73ffffffffffffffffffffffffffffffffffffffff1682526020928301929091019060010161407d565b506020840196909652505073ffffffffffffffffffffffffffffffffffffffff9283166040820152911660609091015292915050565b60006020828403121561410257600080fd5b81518015158114612bd457600080fd5b8183823760009101908152919050565b6000610160820190508c825273ffffffffffffffffffffffffffffffffffffffff808d1660208401528b60408401528a6060840152614164608084018b613e89565b60a083019890985260c082019690965260e0810194909452918516610100840152909316610120820152610140019190915295945050505050565b6000816141ae576141ae613d5c565b507fffffffffffffffffffffffffffffffffffffffffffffffffffffffffffffffff019056fea2646970667358221220d3f1c3de80561cfaf0b6f37ccbe4fdc61394f522414a9d215dd67dcac1ce426b64736f6c63430008110033","linkReferences":{}},"methodIdentifiers":{"VERSION()":"ffa1ad74","addOwnerWithThreshold(address,uint256)":"0d582f13","approveHash(bytes32)":"d4d9bdcd","approvedHashes(address,bytes32)":"7d832974","changeThreshold(uint256)":"694e80c3","checkNSignatures(bytes32,bytes,bytes,uint256)":"12fb68e0","checkSignatures(bytes32,bytes,bytes)":"934f3a11","disableModule(address,address)":"e009cfde","domainSeparator()":"f698da25","enableModule(address)":"610b5925","encodeTransactionData(address,uint256,bytes,uint8,uint256,uint256,uint256,address,address,uint256)":"e86637db","execTransaction(address,uint256,bytes,uint8,uint256,uint256,uint256,address,address,bytes)":"6a761202","execTransactionFromModule(address,uint256,bytes,uint8)":"468721a7","execTransactionFromModuleReturnData(address,uint256,bytes,uint8)":"5229073f","getChainId()":"3408e470","getModulesPaginated(address,uint256)":"cc2f8452","getOwners()":"a0e67e2b","getStorageAt(uint256,uint256)":"5624b25b","getThreshold()":"e75235b8","getTransactionHash(address,uint256,bytes,uint8,uint256,uint256,uint256,address,address,uint256)":"d8d11f78","isModuleEnabled(address)":"2d9ad53d","isOwner(address)":"2f54bf6e","nonce()":"affed0e0","removeOwner(address,address,uint256)":"f8dc5dd9","setFallbackHandler(address)":"f08a0323","setGuard(address)":"e19a9dd9","setup(address[],uint256,address,bytes,address,address,uint256,address)":"b63e800d","signedMessages(bytes32)":"5ae6bd37","simulateAndRevert(address,bytes)":"b4faba09","swapOwner(address,address,address)":"e318b52b"},"id":306}